{"abi":[{"type":"constructor","inputs":[],"stateMutability":"nonpayable"},{"type":"function","name":"allowance","inputs":[{"name":"owner","type":"address","internalType":"address"},{"name":"spender","type":"address","internalType":"address"}],"outputs":[{"name":"","type":"uint256","internalType":"uint256"}],"stateMutability":"view"},{"type":"function","name":"approve","inputs":[{"name":"spender","type":"address","internalType":"address"},{"name":"amount","type":"uint256","internalType":"uint256"}],"outputs":[{"name":"","type":"bool","internalType":"bool"}],"stateMutability":"nonpayable"},{"type":"function","name":"balanceOf","inputs":[{"name":"account","type":"address","internalType":"address"}],"outputs":[{"name":"","type":"uint256","internalType":"uint256"}],"stateMutability":"view"},{"type":"function","name":"burn","inputs":[{"name":"account","type":"address","internalType":"address"},{"name":"value","type":"uint256","internalType":"uint256"}],"outputs":[],"stateMutability":"nonpayable"},{"type":"function","name":"decimals","inputs":[],"outputs":[{"name":"","type":"uint8","internalType":"uint8"}],"stateMutability":"view"},{"type":"function","name":"name","inputs":[],"outputs":[{"name":"","type":"string","internalType":"string"}],"stateMutability":"view"},{"type":"function","name":"symbol","inputs":[],"outputs":[{"name":"","type":"string","internalType":"string"}],"stateMutability":"view"},{"type":"function","name":"totalSupply","inputs":[],"outputs":[{"name":"","type":"uint256","internalType":"uint256"}],"stateMutability":"view"},{"type":"function","name":"transfer","inputs":[{"name":"to","type":"address","internalType":"address"},{"name":"value","type":"uint256","internalType":"uint256"}],"outputs":[{"name":"","type":"bool","internalType":"bool"}],"stateMutability":"nonpayable"},{"type":"function","name":"transferFrom","inputs":[{"name":"from","type":"address","internalType":"address"},{"name":"to","type":"address","internalType":"address"},{"name":"amount","type":"uint256","internalType":"uint256"}],"outputs":[{"name":"","type":"bool","internalType":"bool"}],"stateMutability":"nonpayable"},{"type":"event","name":"Approval","inputs":[{"name":"owner","type":"address","indexed":true,"internalType":"address"},{"name":"spender","type":"address","indexed":true,"internalType":"address"},{"name":"value","type":"uint256","indexed":false,"internalType":"uint256"}],"anonymous":false},{"type":"event","name":"Transfer","inputs":[{"name":"from","type":"address","indexed":true,"internalType":"address"},{"name":"to","type":"address","indexed":true,"internalType":"address"},{"name":"value","type":"uint256","indexed":false,"internalType":"uint256"}],"anonymous":false}],"bytecode":{"object":"0x6080604052601260025f6101000a81548160ff021916908360ff16021790555034801561002a575f5ffd5b506040518060400160405280600b81526020017f4275676779546f6b656e330000000000000000000000000000000000000000008152505f908161006e91906103e4565b506040518060400160405280600481526020017f4255473300000000000000000000000000000000000000000000000000000000815250600190816100b391906103e4565b506100ce3369d3c21bcecceda10000006100d360201b60201c565b61053b565b8060045f8473ffffffffffffffffffffffffffffffffffffffff1673ffffffffffffffffffffffffffffffffffffffff1681526020019081526020015f205f82825461011f91906104e0565b925050819055508060035f82825461013791906104e0565b925050819055508173ffffffffffffffffffffffffffffffffffffffff165f73ffffffffffffffffffffffffffffffffffffffff167fddf252ad1be2c89b69c2b068fc378daa952ba7f163c4a11628f55a4df523b3ef8360405161019b9190610522565b60405180910390a35050565b5f81519050919050565b7f4e487b71000000000000000000000000000000000000000000000000000000005f52604160045260245ffd5b7f4e487b71000000000000000000000000000000000000000000000000000000005f52602260045260245ffd5b5f600282049050600182168061022257607f821691505b602082108103610235576102346101de565b5b50919050565b5f819050815f5260205f209050919050565b5f6020601f8301049050919050565b5f82821b905092915050565b5f600883026102977fffffffffffffffffffffffffffffffffffffffffffffffffffffffffffffffff8261025c565b6102a1868361025c565b95508019841693508086168417925050509392505050565b5f819050919050565b5f819050919050565b5f6102e56102e06102db846102b9565b6102c2565b6102b9565b9050919050565b5f819050919050565b6102fe836102cb565b61031261030a826102ec565b848454610268565b825550505050565b5f5f905090565b61032961031a565b6103348184846102f5565b505050565b5b818110156103575761034c5f82610321565b60018101905061033a565b5050565b601f82111561039c5761036d8161023b565b6103768461024d565b81016020851015610385578190505b6103996103918561024d565b830182610339565b50505b505050565b5f82821c905092915050565b5f6103bc5f19846008026103a1565b1980831691505092915050565b5f6103d483836103ad565b9150826002028217905092915050565b6103ed826101a7565b67ffffffffffffffff811115610406576104056101b1565b5b610410825461020b565b61041b82828561035b565b5f60209050601f83116001811461044c575f841561043a578287015190505b61044485826103c9565b8655506104ab565b601f19841661045a8661023b565b5f5b828110156104815784890151825560018201915060208501945060208101905061045c565b8683101561049e578489015161049a601f8916826103ad565b8355505b6001600288020188555050505b505050505050565b7f4e487b71000000000000000000000000000000000000000000000000000000005f52601160045260245ffd5b5f6104ea826102b9565b91506104f5836102b9565b925082820190508082111561050d5761050c6104b3565b5b92915050565b61051c816102b9565b82525050565b5f6020820190506105355f830184610513565b92915050565b61122b806105485f395ff3fe608060405234801561000f575f5ffd5b506004361061009c575f3560e01c806370a082311161006457806370a082311461015a57806395d89b411461018a5780639dc29fac146101a8578063a9059cbb146101c4578063dd62ed3e146101f45761009c565b806306fdde03146100a0578063095ea7b3146100be57806318160ddd146100ee57806323b872dd1461010c578063313ce5671461013c575b5f5ffd5b6100a8610224565b6040516100b59190610bd0565b60405180910390f35b6100d860048036038101906100d39190610c81565b6102af565b6040516100e59190610cd9565b60405180910390f35b6100f66102c5565b6040516101039190610d01565b60405180910390f35b61012660048036038101906101219190610d1a565b6102ce565b6040516101339190610cd9565b60405180910390f35b6101446102f0565b6040516101519190610d85565b60405180910390f35b610174600480360381019061016f9190610d9e565b610302565b6040516101819190610d01565b60405180910390f35b610192610348565b60405161019f9190610bd0565b60405180910390f35b6101c260048036038101906101bd9190610c81565b6103d4565b005b6101de60048036038101906101d99190610c81565b610594565b6040516101eb9190610cd9565b60405180910390f35b61020e60048036038101906102099190610dc9565b6105aa565b60405161021b9190610d01565b60405180910390f35b5f805461023090610e34565b80601f016020809104026020016040519081016040528092919081815260200182805461025c90610e34565b80156102a75780601f1061027e576101008083540402835291602001916102a7565b820191905f5260205f20905b81548152906001019060200180831161028a57829003601f168201915b505050505081565b5f6102bb33848461062c565b6001905092915050565b5f600354905090565b5f6102da8433846107ef565b6102e58484846108f5565b600190509392505050565b60025f9054906101000a900460ff1681565b5f60045f8373ffffffffffffffffffffffffffffffffffffffff1673ffffffffffffffffffffffffffffffffffffffff1681526020019081526020015f20549050919050565b6001805461035590610e34565b80601f016020809104026020016040519081016040528092919081815260200182805461038190610e34565b80156103cc5780601f106103a3576101008083540402835291602001916103cc565b820191905f5260205f20905b8154815290600101906020018083116103af57829003601f168201915b505050505081565b5f73ffffffffffffffffffffffffffffffffffffffff168273ffffffffffffffffffffffffffffffffffffffff1603610442576040517f08c379a000000000000000000000000000000000000000000000000000000000815260040161043990610eae565b60405180910390fd5b5f60045f8473ffffffffffffffffffffffffffffffffffffffff1673ffffffffffffffffffffffffffffffffffffffff1681526020019081526020015f205490508181116104c5576040517f08c379a00000000000000000000000000000000000000000000000000000000081526004016104bc90610f16565b60405180910390fd5b81816104d19190610f61565b60045f8573ffffffffffffffffffffffffffffffffffffffff1673ffffffffffffffffffffffffffffffffffffffff1681526020019081526020015f20819055508160035f8282546105239190610f61565b925050819055505f73ffffffffffffffffffffffffffffffffffffffff168373ffffffffffffffffffffffffffffffffffffffff167fddf252ad1be2c89b69c2b068fc378daa952ba7f163c4a11628f55a4df523b3ef846040516105879190610d01565b60405180910390a3505050565b5f6105a03384846108f5565b6001905092915050565b5f60055f8473ffffffffffffffffffffffffffffffffffffffff1673ffffffffffffffffffffffffffffffffffffffff1681526020019081526020015f205f8373ffffffffffffffffffffffffffffffffffffffff1673ffffffffffffffffffffffffffffffffffffffff1681526020019081526020015f2054905092915050565b5f73ffffffffffffffffffffffffffffffffffffffff168373ffffffffffffffffffffffffffffffffffffffff160361069a576040517f08c379a000000000000000000000000000000000000000000000000000000000815260040161069190610fde565b60405180910390fd5b5f73ffffffffffffffffffffffffffffffffffffffff168273ffffffffffffffffffffffffffffffffffffffff1603610708576040517f08c379a00000000000000000000000000000000000000000000000000000000081526004016106ff90611046565b60405180910390fd5b8060055f8573ffffffffffffffffffffffffffffffffffffffff1673ffffffffffffffffffffffffffffffffffffffff1681526020019081526020015f205f8473ffffffffffffffffffffffffffffffffffffffff1673ffffffffffffffffffffffffffffffffffffffff1681526020019081526020015f20819055508173ffffffffffffffffffffffffffffffffffffffff168373ffffffffffffffffffffffffffffffffffffffff167f8c5be1e5ebec7d5bd14f71427d1e84f3dd0314c0f7b2291e5b200ac8c7c3b925836040516107e29190610d01565b60405180910390a3505050565b5f6107fa84846105aa565b90507fffffffffffffffffffffffffffffffffffffffffffffffffffffffffffffffff81146108ef5781811015610866576040517f08c379a000000000000000000000000000000000000000000000000000000000815260040161085d906110d4565b60405180910390fd5b81816108729190610f61565b60055f8673ffffffffffffffffffffffffffffffffffffffff1673ffffffffffffffffffffffffffffffffffffffff1681526020019081526020015f205f8573ffffffffffffffffffffffffffffffffffffffff1673ffffffffffffffffffffffffffffffffffffffff1681526020019081526020015f20819055505b50505050565b5f73ffffffffffffffffffffffffffffffffffffffff168373ffffffffffffffffffffffffffffffffffffffff1603610963576040517f08c379a000000000000000000000000000000000000000000000000000000000815260040161095a9061113c565b60405180910390fd5b5f73ffffffffffffffffffffffffffffffffffffffff168273ffffffffffffffffffffffffffffffffffffffff16036109d1576040517f08c379a00000000000000000000000000000000000000000000000000000000081526004016109c8906111a4565b60405180910390fd5b5f60045f8573ffffffffffffffffffffffffffffffffffffffff1673ffffffffffffffffffffffffffffffffffffffff1681526020019081526020015f2054905081811015610a55576040517f08c379a0000000000000000000000000000000000000000000000000000000008152600401610a4c90610f16565b60405180910390fd5b8181610a619190610f61565b60045f8673ffffffffffffffffffffffffffffffffffffffff1673ffffffffffffffffffffffffffffffffffffffff1681526020019081526020015f20819055508160045f8573ffffffffffffffffffffffffffffffffffffffff1673ffffffffffffffffffffffffffffffffffffffff1681526020019081526020015f205f828254610aee91906111c2565b925050819055508273ffffffffffffffffffffffffffffffffffffffff168473ffffffffffffffffffffffffffffffffffffffff167fddf252ad1be2c89b69c2b068fc378daa952ba7f163c4a11628f55a4df523b3ef84604051610b529190610d01565b60405180910390a350505050565b5f81519050919050565b5f82825260208201905092915050565b8281835e5f83830152505050565b5f601f19601f8301169050919050565b5f610ba282610b60565b610bac8185610b6a565b9350610bbc818560208601610b7a565b610bc581610b88565b840191505092915050565b5f6020820190508181035f830152610be88184610b98565b905092915050565b5f5ffd5b5f73ffffffffffffffffffffffffffffffffffffffff82169050919050565b5f610c1d82610bf4565b9050919050565b610c2d81610c13565b8114610c37575f5ffd5b50565b5f81359050610c4881610c24565b92915050565b5f819050919050565b610c6081610c4e565b8114610c6a575f5ffd5b50565b5f81359050610c7b81610c57565b92915050565b5f5f60408385031215610c9757610c96610bf0565b5b5f610ca485828601610c3a565b9250506020610cb585828601610c6d565b9150509250929050565b5f8115159050919050565b610cd381610cbf565b82525050565b5f602082019050610cec5f830184610cca565b92915050565b610cfb81610c4e565b82525050565b5f602082019050610d145f830184610cf2565b92915050565b5f5f5f60608486031215610d3157610d30610bf0565b5b5f610d3e86828701610c3a565b9350506020610d4f86828701610c3a565b9250506040610d6086828701610c6d565b9150509250925092565b5f60ff82169050919050565b610d7f81610d6a565b82525050565b5f602082019050610d985f830184610d76565b92915050565b5f60208284031215610db357610db2610bf0565b5b5f610dc084828501610c3a565b91505092915050565b5f5f60408385031215610ddf57610dde610bf0565b5b5f610dec85828601610c3a565b9250506020610dfd85828601610c3a565b9150509250929050565b7f4e487b71000000000000000000000000000000000000000000000000000000005f52602260045260245ffd5b5f6002820490506001821680610e4b57607f821691505b602082108103610e5e57610e5d610e07565b5b50919050565b7f496e76616c6964206275726e65720000000000000000000000000000000000005f82015250565b5f610e98600e83610b6a565b9150610ea382610e64565b602082019050919050565b5f6020820190508181035f830152610ec581610e8c565b9050919050565b7f496e73756666696369656e742062616c616e63650000000000000000000000005f82015250565b5f610f00601483610b6a565b9150610f0b82610ecc565b602082019050919050565b5f6020820190508181035f830152610f2d81610ef4565b9050919050565b7f4e487b71000000000000000000000000000000000000000000000000000000005f52601160045260245ffd5b5f610f6b82610c4e565b9150610f7683610c4e565b9250828203905081811115610f8e57610f8d610f34565b5b92915050565b7f417070726f76652066726f6d207a65726f2061646472657373000000000000005f82015250565b5f610fc8601983610b6a565b9150610fd382610f94565b602082019050919050565b5f6020820190508181035f830152610ff581610fbc565b9050919050565b7f417070726f766520746f207a65726f20616464726573730000000000000000005f82015250565b5f611030601783610b6a565b915061103b82610ffc565b602082019050919050565b5f6020820190508181035f83015261105d81611024565b9050919050565b7f4368616c6c656e6765333a20696e73756666696369656e7420616c6c6f77616e5f8201527f6365000000000000000000000000000000000000000000000000000000000000602082015250565b5f6110be602283610b6a565b91506110c982611064565b604082019050919050565b5f6020820190508181035f8301526110eb816110b2565b9050919050565b7f496e76616c69642073656e6465720000000000000000000000000000000000005f82015250565b5f611126600e83610b6a565b9150611131826110f2565b602082019050919050565b5f6020820190508181035f8301526111538161111a565b9050919050565b7f496e76616c6964207265636569766572000000000000000000000000000000005f82015250565b5f61118e601083610b6a565b91506111998261115a565b602082019050919050565b5f6020820190508181035f8301526111bb81611182565b9050919050565b5f6111cc82610c4e565b91506111d783610c4e565b92508282019050808211156111ef576111ee610f34565b5b9291505056fea26469706673582212204460b8fb92d55754679405ebbfb14f0bf19057e0e57e37c45ed07af2a0bd4c9964736f6c634300081c0033","linkReferences":{}},"methodIdentifiers":{"allowance(address,address)":"dd62ed3e","approve(address,uint256)":"095ea7b3","balanceOf(address)":"70a08231","burn(address,uint256)":"9dc29fac","decimals()":"313ce567","name()":"06fdde03","symbol()":"95d89b41","totalSupply()":"18160ddd","transfer(address,uint256)":"a9059cbb","transferFrom(address,address,uint256)":"23b872dd"},"id":18}