{"abi":[{"type":"constructor","inputs":[{"name":"_name","type":"string","internalType":"string"},{"name":"_symbol","type":"string","internalType":"string"},{"name":"_decimals","type":"uint8","internalType":"uint8"}],"stateMutability":"nonpayable"},{"type":"function","name":"allowance","inputs":[{"name":"","type":"address","internalType":"address"},{"name":"","type":"address","internalType":"address"}],"outputs":[{"name":"","type":"uint256","internalType":"uint256"}],"stateMutability":"view"},{"type":"function","name":"approve","inputs":[{"name":"spender","type":"address","internalType":"address"},{"name":"amount","type":"uint256","internalType":"uint256"}],"outputs":[{"name":"","type":"bool","internalType":"bool"}],"stateMutability":"nonpayable"},{"type":"function","name":"balanceOf","inputs":[{"name":"","type":"address","internalType":"address"}],"outputs":[{"name":"","type":"uint256","internalType":"uint256"}],"stateMutability":"view"},{"type":"function","name":"decimals","inputs":[],"outputs":[{"name":"","type":"uint8","internalType":"uint8"}],"stateMutability":"view"},{"type":"function","name":"gift","inputs":[{"name":"to","type":"address","internalType":"address"},{"name":"amount","type":"uint256","internalType":"uint256"}],"outputs":[],"stateMutability":"nonpayable"},{"type":"function","name":"name","inputs":[],"outputs":[{"name":"","type":"string","internalType":"string"}],"stateMutability":"view"},{"type":"function","name":"owner","inputs":[],"outputs":[{"name":"","type":"address","internalType":"address"}],"stateMutability":"view"},{"type":"function","name":"symbol","inputs":[],"outputs":[{"name":"","type":"string","internalType":"string"}],"stateMutability":"view"},{"type":"function","name":"totalSupply","inputs":[],"outputs":[{"name":"","type":"uint256","internalType":"uint256"}],"stateMutability":"view"},{"type":"function","name":"transfer","inputs":[{"name":"to","type":"address","internalType":"address"},{"name":"amount","type":"uint256","internalType":"uint256"}],"outputs":[{"name":"","type":"bool","internalType":"bool"}],"stateMutability":"nonpayable"},{"type":"function","name":"transferFrom","inputs":[{"name":"from","type":"address","internalType":"address"},{"name":"to","type":"address","internalType":"address"},{"name":"amount","type":"uint256","internalType":"uint256"}],"outputs":[{"name":"","type":"bool","internalType":"bool"}],"stateMutability":"nonpayable"},{"type":"event","name":"Approval","inputs":[{"name":"owner","type":"address","indexed":true,"internalType":"address"},{"name":"spender","type":"address","indexed":true,"internalType":"address"},{"name":"amount","type":"uint256","indexed":false,"internalType":"uint256"}],"anonymous":false},{"type":"event","name":"Transfer","inputs":[{"name":"from","type":"address","indexed":true,"internalType":"address"},{"name":"to","type":"address","indexed":true,"internalType":"address"},{"name":"amount","type":"uint256","indexed":false,"internalType":"uint256"}],"anonymous":false}],"bytecode":{"object":"0x60a060405234801561000f575f5ffd5b50604051611a15380380611a1583398181016040528101906100319190610229565b825f908161003f91906104c1565b50816001908161004f91906104c1565b508060ff1660808160ff16815250503360055f6101000a81548173ffffffffffffffffffffffffffffffffffffffff021916908373ffffffffffffffffffffffffffffffffffffffff160217905550505050610590565b5f604051905090565b5f5ffd5b5f5ffd5b5f5ffd5b5f5ffd5b5f601f19601f8301169050919050565b7f4e487b71000000000000000000000000000000000000000000000000000000005f52604160045260245ffd5b610105826100bf565b810181811067ffffffffffffffff82111715610124576101236100cf565b5b80604052505050565b5f6101366100a6565b905061014282826100fc565b919050565b5f67ffffffffffffffff821115610161576101606100cf565b5b61016a826100bf565b9050602081019050919050565b8281835e5f83830152505050565b5f61019761019284610147565b61012d565b9050828152602081018484840111156101b3576101b26100bb565b5b6101be848285610177565b509392505050565b5f82601f8301126101da576101d96100b7565b5b81516101ea848260208601610185565b91505092915050565b5f60ff82169050919050565b610208816101f3565b8114610212575f5ffd5b50565b5f81519050610223816101ff565b92915050565b5f5f5f606084860312156102405761023f6100af565b5b5f84015167ffffffffffffffff81111561025d5761025c6100b3565b5b610269868287016101c6565b935050602084015167ffffffffffffffff81111561028a576102896100b3565b5b610296868287016101c6565b92505060406102a786828701610215565b9150509250925092565b5f81519050919050565b7f4e487b71000000000000000000000000000000000000000000000000000000005f52602260045260245ffd5b5f60028204905060018216806102ff57607f821691505b602082108103610312576103116102bb565b5b50919050565b5f819050815f5260205f209050919050565b5f6020601f8301049050919050565b5f82821b905092915050565b5f600883026103747fffffffffffffffffffffffffffffffffffffffffffffffffffffffffffffffff82610339565b61037e8683610339565b95508019841693508086168417925050509392505050565b5f819050919050565b5f819050919050565b5f6103c26103bd6103b884610396565b61039f565b610396565b9050919050565b5f819050919050565b6103db836103a8565b6103ef6103e7826103c9565b848454610345565b825550505050565b5f5f905090565b6104066103f7565b6104118184846103d2565b505050565b5b81811015610434576104295f826103fe565b600181019050610417565b5050565b601f8211156104795761044a81610318565b6104538461032a565b81016020851015610462578190505b61047661046e8561032a565b830182610416565b50505b505050565b5f82821c905092915050565b5f6104995f198460080261047e565b1980831691505092915050565b5f6104b1838361048a565b9150826002028217905092915050565b6104ca826102b1565b67ffffffffffffffff8111156104e3576104e26100cf565b5b6104ed82546102e8565b6104f8828285610438565b5f60209050601f831160018114610529575f8415610517578287015190505b61052185826104a6565b865550610588565b601f19841661053786610318565b5f5b8281101561055e57848901518255600182019150602085019450602081019050610539565b8683101561057b5784890151610577601f89168261048a565b8355505b6001600288020188555050505b505050505050565b60805161146d6105a85f395f610803015261146d5ff3fe608060405234801561000f575f5ffd5b50600436106100a7575f3560e01c806370a082311161006f57806370a08231146101655780638da5cb5b1461019557806395d89b41146101b3578063a9059cbb146101d1578063cbce4c9714610201578063dd62ed3e1461021d576100a7565b806306fdde03146100ab578063095ea7b3146100c957806318160ddd146100f957806323b872dd14610117578063313ce56714610147575b5f5ffd5b6100b361024d565b6040516100c09190610d43565b60405180910390f35b6100e360048036038101906100de9190610df4565b6102d8565b6040516100f09190610e4c565b60405180910390f35b610101610433565b60405161010e9190610e74565b60405180910390f35b610131600480360381019061012c9190610e8d565b610439565b60405161013e9190610e4c565b60405180910390f35b61014f610801565b60405161015c9190610ef8565b60405180910390f35b61017f600480360381019061017a9190610f11565b610825565b60405161018c9190610e74565b60405180910390f35b61019d61083a565b6040516101aa9190610f4b565b60405180910390f35b6101bb61085f565b6040516101c89190610d43565b60405180910390f35b6101eb60048036038101906101e69190610df4565b6108eb565b6040516101f89190610e4c565b60405180910390f35b61021b60048036038101906102169190610df4565b610add565b005b61023760048036038101906102329190610f64565b610b7a565b6040516102449190610e74565b60405180910390f35b5f805461025990610fcf565b80601f016020809104026020016040519081016040528092919081815260200182805461028590610fcf565b80156102d05780601f106102a7576101008083540402835291602001916102d0565b820191905f5260205f20905b8154815290600101906020018083116102b357829003601f168201915b505050505081565b5f5f73ffffffffffffffffffffffffffffffffffffffff168373ffffffffffffffffffffffffffffffffffffffff1603610347576040517f08c379a000000000000000000000000000000000000000000000000000000000815260040161033e9061106f565b60405180910390fd5b8160045f3373ffffffffffffffffffffffffffffffffffffffff1673ffffffffffffffffffffffffffffffffffffffff1681526020019081526020015f205f8573ffffffffffffffffffffffffffffffffffffffff1673ffffffffffffffffffffffffffffffffffffffff1681526020019081526020015f20819055508273ffffffffffffffffffffffffffffffffffffffff163373ffffffffffffffffffffffffffffffffffffffff167f8c5be1e5ebec7d5bd14f71427d1e84f3dd0314c0f7b2291e5b200ac8c7c3b925846040516104219190610e74565b60405180910390a36001905092915050565b60025481565b5f5f73ffffffffffffffffffffffffffffffffffffffff168473ffffffffffffffffffffffffffffffffffffffff16036104a8576040517f08c379a000000000000000000000000000000000000000000000000000000000815260040161049f906110fd565b60405180910390fd5b5f73ffffffffffffffffffffffffffffffffffffffff168373ffffffffffffffffffffffffffffffffffffffff1603610516576040517f08c379a000000000000000000000000000000000000000000000000000000000815260040161050d9061118b565b60405180910390fd5b60035f8573ffffffffffffffffffffffffffffffffffffffff1673ffffffffffffffffffffffffffffffffffffffff1681526020019081526020015f2054821115610596576040517f08c379a000000000000000000000000000000000000000000000000000000000815260040161058d90611219565b60405180910390fd5b5f60045f8673ffffffffffffffffffffffffffffffffffffffff1673ffffffffffffffffffffffffffffffffffffffff1681526020019081526020015f205f3373ffffffffffffffffffffffffffffffffffffffff1673ffffffffffffffffffffffffffffffffffffffff1681526020019081526020015f205490507fffffffffffffffffffffffffffffffffffffffffffffffffffffffffffffffff811461067d578281101561067c576040517f08c379a000000000000000000000000000000000000000000000000000000000815260040161067390611281565b60405180910390fd5b5b82810360045f8773ffffffffffffffffffffffffffffffffffffffff1673ffffffffffffffffffffffffffffffffffffffff1681526020019081526020015f205f3373ffffffffffffffffffffffffffffffffffffffff1673ffffffffffffffffffffffffffffffffffffffff1681526020019081526020015f20819055508260035f8773ffffffffffffffffffffffffffffffffffffffff1673ffffffffffffffffffffffffffffffffffffffff1681526020019081526020015f205f82825403925050819055508260035f8673ffffffffffffffffffffffffffffffffffffffff1673ffffffffffffffffffffffffffffffffffffffff1681526020019081526020015f205f82825401925050819055508373ffffffffffffffffffffffffffffffffffffffff168573ffffffffffffffffffffffffffffffffffffffff167fddf252ad1be2c89b69c2b068fc378daa952ba7f163c4a11628f55a4df523b3ef856040516107ed9190610e74565b60405180910390a360019150509392505050565b7f000000000000000000000000000000000000000000000000000000000000000081565b6003602052805f5260405f205f915090505481565b60055f9054906101000a900473ffffffffffffffffffffffffffffffffffffffff1681565b6001805461086c90610fcf565b80601f016020809104026020016040519081016040528092919081815260200182805461089890610fcf565b80156108e35780601f106108ba576101008083540402835291602001916108e3565b820191905f5260205f20905b8154815290600101906020018083116108c657829003601f168201915b505050505081565b5f5f73ffffffffffffffffffffffffffffffffffffffff168373ffffffffffffffffffffffffffffffffffffffff160361095a576040517f08c379a00000000000000000000000000000000000000000000000000000000081526004016109519061118b565b60405180910390fd5b60035f3373ffffffffffffffffffffffffffffffffffffffff1673ffffffffffffffffffffffffffffffffffffffff1681526020019081526020015f20548211156109da576040517f08c379a00000000000000000000000000000000000000000000000000000000081526004016109d1906112e9565b60405180910390fd5b8160035f3373ffffffffffffffffffffffffffffffffffffffff1673ffffffffffffffffffffffffffffffffffffffff1681526020019081526020015f205f82825403925050819055508160035f8573ffffffffffffffffffffffffffffffffffffffff1673ffffffffffffffffffffffffffffffffffffffff1681526020019081526020015f205f82825401925050819055508273ffffffffffffffffffffffffffffffffffffffff163373ffffffffffffffffffffffffffffffffffffffff167fddf252ad1be2c89b69c2b068fc378daa952ba7f163c4a11628f55a4df523b3ef84604051610acb9190610e74565b60405180910390a36001905092915050565b60055f9054906101000a900473ffffffffffffffffffffffffffffffffffffffff1673ffffffffffffffffffffffffffffffffffffffff163373ffffffffffffffffffffffffffffffffffffffff1614610b6c576040517f08c379a0000000000000000000000000000000000000000000000000000000008152600401610b6390611351565b60405180910390fd5b610b768282610b9a565b5050565b6004602052815f5260405f20602052805f5260405f205f91509150505481565b5f73ffffffffffffffffffffffffffffffffffffffff168273ffffffffffffffffffffffffffffffffffffffff1603610c08576040517f08c379a0000000000000000000000000000000000000000000000000000000008152600401610bff906113b9565b60405180910390fd5b8060025f828254610c199190611404565b925050819055508060035f8473ffffffffffffffffffffffffffffffffffffffff1673ffffffffffffffffffffffffffffffffffffffff1681526020019081526020015f205f82825401925050819055508173ffffffffffffffffffffffffffffffffffffffff165f73ffffffffffffffffffffffffffffffffffffffff167fddf252ad1be2c89b69c2b068fc378daa952ba7f163c4a11628f55a4df523b3ef83604051610cc79190610e74565b60405180910390a35050565b5f81519050919050565b5f82825260208201905092915050565b8281835e5f83830152505050565b5f601f19601f8301169050919050565b5f610d1582610cd3565b610d1f8185610cdd565b9350610d2f818560208601610ced565b610d3881610cfb565b840191505092915050565b5f6020820190508181035f830152610d5b8184610d0b565b905092915050565b5f5ffd5b5f73ffffffffffffffffffffffffffffffffffffffff82169050919050565b5f610d9082610d67565b9050919050565b610da081610d86565b8114610daa575f5ffd5b50565b5f81359050610dbb81610d97565b92915050565b5f819050919050565b610dd381610dc1565b8114610ddd575f5ffd5b50565b5f81359050610dee81610dca565b92915050565b5f5f60408385031215610e0a57610e09610d63565b5b5f610e1785828601610dad565b9250506020610e2885828601610de0565b9150509250929050565b5f8115159050919050565b610e4681610e32565b82525050565b5f602082019050610e5f5f830184610e3d565b92915050565b610e6e81610dc1565b82525050565b5f602082019050610e875f830184610e65565b92915050565b5f5f5f60608486031215610ea457610ea3610d63565b5b5f610eb186828701610dad565b9350506020610ec286828701610dad565b9250506040610ed386828701610de0565b9150509250925092565b5f60ff82169050919050565b610ef281610edd565b82525050565b5f602082019050610f0b5f830184610ee9565b92915050565b5f60208284031215610f2657610f25610d63565b5b5f610f3384828501610dad565b91505092915050565b610f4581610d86565b82525050565b5f602082019050610f5e5f830184610f3c565b92915050565b5f5f60408385031215610f7a57610f79610d63565b5b5f610f8785828601610dad565b9250506020610f9885828601610dad565b9150509250929050565b7f4e487b71000000000000000000000000000000000000000000000000000000005f52602260045260245ffd5b5f6002820490506001821680610fe657607f821691505b602082108103610ff957610ff8610fa2565b5b50919050565b7f45524332303a20617070726f766520746f20746865207a65726f2061646472655f8201527f7373000000000000000000000000000000000000000000000000000000000000602082015250565b5f611059602283610cdd565b915061106482610fff565b604082019050919050565b5f6020820190508181035f8301526110868161104d565b9050919050565b7f45524332303a207472616e736665722066726f6d20746865207a65726f2061645f8201527f6472657373000000000000000000000000000000000000000000000000000000602082015250565b5f6110e7602583610cdd565b91506110f28261108d565b604082019050919050565b5f6020820190508181035f830152611114816110db565b9050919050565b7f45524332303a207472616e7366657220746f20746865207a65726f20616464725f8201527f6573730000000000000000000000000000000000000000000000000000000000602082015250565b5f611175602383610cdd565b91506111808261111b565b604082019050919050565b5f6020820190508181035f8301526111a281611169565b9050919050565b7f45524332303a207472616e7366657220616d6f756e74206578636565647320625f8201527f616c616e63650000000000000000000000000000000000000000000000000000602082015250565b5f611203602683610cdd565b915061120e826111a9565b604082019050919050565b5f6020820190508181035f830152611230816111f7565b9050919050565b7f45524332303a20696e73756666696369656e7420616c6c6f77616e63650000005f82015250565b5f61126b601d83610cdd565b915061127682611237565b602082019050919050565b5f6020820190508181035f8301526112988161125f565b9050919050565b7f45524332303a20696e73756666696369656e742062616c616e636500000000005f82015250565b5f6112d3601b83610cdd565b91506112de8261129f565b602082019050919050565b5f6020820190508181035f830152611300816112c7565b9050919050565b7f4368616c6c656e676531323a2063616c6c6572206973206e6f74206f776e65725f82015250565b5f61133b602083610cdd565b915061134682611307565b602082019050919050565b5f6020820190508181035f8301526113688161132f565b9050919050565b7f45524332303a206d696e7420746f20746865207a65726f2061646472657373005f82015250565b5f6113a3601f83610cdd565b91506113ae8261136f565b602082019050919050565b5f6020820190508181035f8301526113d081611397565b9050919050565b7f4e487b71000000000000000000000000000000000000000000000000000000005f52601160045260245ffd5b5f61140e82610dc1565b915061141983610dc1565b9250828201905080821115611431576114306113d7565b5b9291505056fea26469706673582212209dc7b1ae361a4acfad039bafbe81d52b5a77f810c22338004b36c111d9cf042564736f6c634300081c0033","linkReferences":{}},"methodIdentifiers":{"allowance(address,address)":"dd62ed3e","approve(address,uint256)":"095ea7b3","balanceOf(address)":"70a08231","decimals()":"313ce567","gift(address,uint256)":"cbce4c97","name()":"06fdde03","owner()":"8da5cb5b","symbol()":"95d89b41","totalSupply()":"18160ddd","transfer(address,uint256)":"a9059cbb","transferFrom(address,address,uint256)":"23b872dd"},"id":18}