{"abi":[{"type":"constructor","inputs":[],"stateMutability":"nonpayable"},{"type":"function","name":"addToBlacklist","inputs":[{"name":"account","type":"address","internalType":"address"}],"outputs":[],"stateMutability":"nonpayable"},{"type":"function","name":"allowance","inputs":[{"name":"owner","type":"address","internalType":"address"},{"name":"spender","type":"address","internalType":"address"}],"outputs":[{"name":"","type":"uint256","internalType":"uint256"}],"stateMutability":"view"},{"type":"function","name":"approve","inputs":[{"name":"spender","type":"address","internalType":"address"},{"name":"value","type":"uint256","internalType":"uint256"}],"outputs":[{"name":"","type":"bool","internalType":"bool"}],"stateMutability":"nonpayable"},{"type":"function","name":"balanceOf","inputs":[{"name":"account","type":"address","internalType":"address"}],"outputs":[{"name":"","type":"uint256","internalType":"uint256"}],"stateMutability":"view"},{"type":"function","name":"blacklist","inputs":[{"name":"","type":"address","internalType":"address"}],"outputs":[{"name":"","type":"bool","internalType":"bool"}],"stateMutability":"view"},{"type":"function","name":"contractOwner","inputs":[],"outputs":[{"name":"","type":"address","internalType":"address"}],"stateMutability":"view"},{"type":"function","name":"decimals","inputs":[],"outputs":[{"name":"","type":"uint8","internalType":"uint8"}],"stateMutability":"view"},{"type":"function","name":"name","inputs":[],"outputs":[{"name":"","type":"string","internalType":"string"}],"stateMutability":"view"},{"type":"function","name":"removeFromBlacklist","inputs":[{"name":"account","type":"address","internalType":"address"}],"outputs":[],"stateMutability":"nonpayable"},{"type":"function","name":"symbol","inputs":[],"outputs":[{"name":"","type":"string","internalType":"string"}],"stateMutability":"view"},{"type":"function","name":"totalSupply","inputs":[],"outputs":[{"name":"","type":"uint256","internalType":"uint256"}],"stateMutability":"view"},{"type":"function","name":"transfer","inputs":[{"name":"to","type":"address","internalType":"address"},{"name":"value","type":"uint256","internalType":"uint256"}],"outputs":[{"name":"","type":"bool","internalType":"bool"}],"stateMutability":"nonpayable"},{"type":"function","name":"transferFrom","inputs":[{"name":"from","type":"address","internalType":"address"},{"name":"to","type":"address","internalType":"address"},{"name":"value","type":"uint256","internalType":"uint256"}],"outputs":[{"name":"","type":"bool","internalType":"bool"}],"stateMutability":"nonpayable"},{"type":"event","name":"Approval","inputs":[{"name":"owner","type":"address","indexed":true,"internalType":"address"},{"name":"spender","type":"address","indexed":true,"internalType":"address"},{"name":"value","type":"uint256","indexed":false,"internalType":"uint256"}],"anonymous":false},{"type":"event","name":"Blacklisted","inputs":[{"name":"account","type":"address","indexed":true,"internalType":"address"}],"anonymous":false},{"type":"event","name":"Transfer","inputs":[{"name":"from","type":"address","indexed":true,"internalType":"address"},{"name":"to","type":"address","indexed":true,"internalType":"address"},{"name":"value","type":"uint256","indexed":false,"internalType":"uint256"}],"anonymous":false},{"type":"event","name":"Unblacklisted","inputs":[{"name":"account","type":"address","indexed":true,"internalType":"address"}],"anonymous":false},{"type":"error","name":"ERC20InsufficientAllowance","inputs":[{"name":"spender","type":"address","internalType":"address"},{"name":"allowance","type":"uint256","internalType":"uint256"},{"name":"needed","type":"uint256","internalType":"uint256"}]},{"type":"error","name":"ERC20InsufficientBalance","inputs":[{"name":"sender","type":"address","internalType":"address"},{"name":"balance","type":"uint256","internalType":"uint256"},{"name":"needed","type":"uint256","internalType":"uint256"}]},{"type":"error","name":"ERC20InvalidApprover","inputs":[{"name":"approver","type":"address","internalType":"address"}]},{"type":"error","name":"ERC20InvalidReceiver","inputs":[{"name":"receiver","type":"address","internalType":"address"}]},{"type":"error","name":"ERC20InvalidSender","inputs":[{"name":"sender","type":"address","internalType":"address"}]},{"type":"error","name":"ERC20InvalidSpender","inputs":[{"name":"spender","type":"address","internalType":"address"}]},{"type":"error","name":"Unauthorized","inputs":[]}],"bytecode":{"object":"0x608060405234801561000f575f5ffd5b506040518060400160405280600b81526020017f4275676779546f6b656e360000000000000000000000000000000000000000008152505f90816100539190610479565b506040518060400160405280600481526020017f4255473600000000000000000000000000000000000000000000000000000000815250600190816100989190610479565b503360025f6101000a81548173ffffffffffffffffffffffffffffffffffffffff021916908373ffffffffffffffffffffffffffffffffffffffff1602179055506100f33369d3c21bcecceda10000006100f860201b60201c565b610628565b5f73ffffffffffffffffffffffffffffffffffffffff168273ffffffffffffffffffffffffffffffffffffffff160361016857816040517fec442f0500000000000000000000000000000000000000000000000000000000815260040161015f9190610587565b60405180910390fd5b8060065f82825461017991906105cd565b925050819055508060035f8473ffffffffffffffffffffffffffffffffffffffff1673ffffffffffffffffffffffffffffffffffffffff1681526020019081526020015f205f8282546101cc91906105cd565b925050819055508173ffffffffffffffffffffffffffffffffffffffff165f73ffffffffffffffffffffffffffffffffffffffff167fddf252ad1be2c89b69c2b068fc378daa952ba7f163c4a11628f55a4df523b3ef83604051610230919061060f565b60405180910390a35050565b5f81519050919050565b7f4e487b71000000000000000000000000000000000000000000000000000000005f52604160045260245ffd5b7f4e487b71000000000000000000000000000000000000000000000000000000005f52602260045260245ffd5b5f60028204905060018216806102b757607f821691505b6020821081036102ca576102c9610273565b5b50919050565b5f819050815f5260205f209050919050565b5f6020601f8301049050919050565b5f82821b905092915050565b5f6008830261032c7fffffffffffffffffffffffffffffffffffffffffffffffffffffffffffffffff826102f1565b61033686836102f1565b95508019841693508086168417925050509392505050565b5f819050919050565b5f819050919050565b5f61037a6103756103708461034e565b610357565b61034e565b9050919050565b5f819050919050565b61039383610360565b6103a761039f82610381565b8484546102fd565b825550505050565b5f5f905090565b6103be6103af565b6103c981848461038a565b505050565b5b818110156103ec576103e15f826103b6565b6001810190506103cf565b5050565b601f82111561043157610402816102d0565b61040b846102e2565b8101602085101561041a578190505b61042e610426856102e2565b8301826103ce565b50505b505050565b5f82821c905092915050565b5f6104515f1984600802610436565b1980831691505092915050565b5f6104698383610442565b9150826002028217905092915050565b6104828261023c565b67ffffffffffffffff81111561049b5761049a610246565b5b6104a582546102a0565b6104b08282856103f0565b5f60209050601f8311600181146104e1575f84156104cf578287015190505b6104d9858261045e565b865550610540565b601f1984166104ef866102d0565b5f5b82811015610516578489015182556001820191506020850194506020810190506104f1565b86831015610533578489015161052f601f891682610442565b8355505b6001600288020188555050505b505050505050565b5f73ffffffffffffffffffffffffffffffffffffffff82169050919050565b5f61057182610548565b9050919050565b61058181610567565b82525050565b5f60208201905061059a5f830184610578565b92915050565b7f4e487b71000000000000000000000000000000000000000000000000000000005f52601160045260245ffd5b5f6105d78261034e565b91506105e28361034e565b92508282019050808211156105fa576105f96105a0565b5b92915050565b6106098161034e565b82525050565b5f6020820190506106225f830184610600565b92915050565b6112f3806106355f395ff3fe608060405234801561000f575f5ffd5b50600436106100cd575f3560e01c8063537df3b61161008a578063a9059cbb11610064578063a9059cbb14610211578063ce606ee014610241578063dd62ed3e1461025f578063f9f92be41461028f576100cd565b8063537df3b6146101a757806370a08231146101c357806395d89b41146101f3576100cd565b806306fdde03146100d1578063095ea7b3146100ef57806318160ddd1461011f57806323b872dd1461013d578063313ce5671461016d57806344337ea11461018b575b5f5ffd5b6100d96102bf565b6040516100e69190610e43565b60405180910390f35b61010960048036038101906101049190610ef4565b61034a565b6040516101169190610f4c565b60405180910390f35b610127610360565b6040516101349190610f74565b60405180910390f35b61015760048036038101906101529190610f8d565b610369565b6040516101649190610f4c565b60405180910390f35b610175610415565b6040516101829190610ff8565b60405180910390f35b6101a560048036038101906101a09190611011565b61041a565b005b6101c160048036038101906101bc9190611011565b61053b565b005b6101dd60048036038101906101d89190611011565b61065b565b6040516101ea9190610f74565b60405180910390f35b6101fb6106a1565b6040516102089190610e43565b60405180910390f35b61022b60048036038101906102269190610ef4565b61072d565b6040516102389190610f4c565b60405180910390f35b6102496107cd565b604051610256919061104b565b60405180910390f35b61027960048036038101906102749190611064565b6107f2565b6040516102869190610f74565b60405180910390f35b6102a960048036038101906102a49190611011565b610874565b6040516102b69190610f4c565b60405180910390f35b5f80546102cb906110cf565b80601f01602080910402602001604051908101604052809291908181526020018280546102f7906110cf565b80156103425780601f1061031957610100808354040283529160200191610342565b820191905f5260205f20905b81548152906001019060200180831161032557829003601f168201915b505050505081565b5f610356338484610891565b6001905092915050565b5f600654905090565b5f60055f3373ffffffffffffffffffffffffffffffffffffffff1673ffffffffffffffffffffffffffffffffffffffff1681526020019081526020015f205f9054906101000a900460ff16156103f4576040517f08c379a00000000000000000000000000000000000000000000000000000000081526004016103eb90611149565b60405180910390fd5b6103ff843384610a58565b61040a848484610b5e565b600190509392505050565b601281565b60025f9054906101000a900473ffffffffffffffffffffffffffffffffffffffff1673ffffffffffffffffffffffffffffffffffffffff163373ffffffffffffffffffffffffffffffffffffffff16146104a0576040517f82b4290000000000000000000000000000000000000000000000000000000000815260040160405180910390fd5b600160055f8373ffffffffffffffffffffffffffffffffffffffff1673ffffffffffffffffffffffffffffffffffffffff1681526020019081526020015f205f6101000a81548160ff0219169083151502179055508073ffffffffffffffffffffffffffffffffffffffff167fffa4e6181777692565cf28528fc88fd1516ea86b56da075235fa575af6a4b85560405160405180910390a250565b60025f9054906101000a900473ffffffffffffffffffffffffffffffffffffffff1673ffffffffffffffffffffffffffffffffffffffff163373ffffffffffffffffffffffffffffffffffffffff16146105c1576040517f82b4290000000000000000000000000000000000000000000000000000000000815260040160405180910390fd5b5f60055f8373ffffffffffffffffffffffffffffffffffffffff1673ffffffffffffffffffffffffffffffffffffffff1681526020019081526020015f205f6101000a81548160ff0219169083151502179055508073ffffffffffffffffffffffffffffffffffffffff167f7534c63860313c46c473e4e98328f37017e9674e2162faf1a3ad7a96236c3b7b60405160405180910390a250565b5f60035f8373ffffffffffffffffffffffffffffffffffffffff1673ffffffffffffffffffffffffffffffffffffffff1681526020019081526020015f20549050919050565b600180546106ae906110cf565b80601f01602080910402602001604051908101604052809291908181526020018280546106da906110cf565b80156107255780601f106106fc57610100808354040283529160200191610725565b820191905f5260205f20905b81548152906001019060200180831161070857829003601f168201915b505050505081565b5f60055f3373ffffffffffffffffffffffffffffffffffffffff1673ffffffffffffffffffffffffffffffffffffffff1681526020019081526020015f205f9054906101000a900460ff16156107b8576040517f08c379a00000000000000000000000000000000000000000000000000000000081526004016107af90611149565b60405180910390fd5b6107c3338484610b5e565b6001905092915050565b60025f9054906101000a900473ffffffffffffffffffffffffffffffffffffffff1681565b5f60045f8473ffffffffffffffffffffffffffffffffffffffff1673ffffffffffffffffffffffffffffffffffffffff1681526020019081526020015f205f8373ffffffffffffffffffffffffffffffffffffffff1673ffffffffffffffffffffffffffffffffffffffff1681526020019081526020015f2054905092915050565b6005602052805f5260405f205f915054906101000a900460ff1681565b5f73ffffffffffffffffffffffffffffffffffffffff168373ffffffffffffffffffffffffffffffffffffffff160361090157826040517fe602df050000000000000000000000000000000000000000000000000000000081526004016108f8919061104b565b60405180910390fd5b5f73ffffffffffffffffffffffffffffffffffffffff168273ffffffffffffffffffffffffffffffffffffffff160361097157816040517f94280d62000000000000000000000000000000000000000000000000000000008152600401610968919061104b565b60405180910390fd5b8060045f8573ffffffffffffffffffffffffffffffffffffffff1673ffffffffffffffffffffffffffffffffffffffff1681526020019081526020015f205f8473ffffffffffffffffffffffffffffffffffffffff1673ffffffffffffffffffffffffffffffffffffffff1681526020019081526020015f20819055508173ffffffffffffffffffffffffffffffffffffffff168373ffffffffffffffffffffffffffffffffffffffff167f8c5be1e5ebec7d5bd14f71427d1e84f3dd0314c0f7b2291e5b200ac8c7c3b92583604051610a4b9190610f74565b60405180910390a3505050565b5f610a6384846107f2565b90507fffffffffffffffffffffffffffffffffffffffffffffffffffffffffffffffff8114610b585781811015610acf576040517f08c379a0000000000000000000000000000000000000000000000000000000008152600401610ac6906111d7565b60405180910390fd5b8181610adb9190611222565b60045f8673ffffffffffffffffffffffffffffffffffffffff1673ffffffffffffffffffffffffffffffffffffffff1681526020019081526020015f205f8573ffffffffffffffffffffffffffffffffffffffff1673ffffffffffffffffffffffffffffffffffffffff1681526020019081526020015f20819055505b50505050565b5f73ffffffffffffffffffffffffffffffffffffffff168373ffffffffffffffffffffffffffffffffffffffff1603610bce57826040517f96c6fd1e000000000000000000000000000000000000000000000000000000008152600401610bc5919061104b565b60405180910390fd5b5f73ffffffffffffffffffffffffffffffffffffffff168273ffffffffffffffffffffffffffffffffffffffff1603610c3e57816040517fec442f05000000000000000000000000000000000000000000000000000000008152600401610c35919061104b565b60405180910390fd5b5f60035f8573ffffffffffffffffffffffffffffffffffffffff1673ffffffffffffffffffffffffffffffffffffffff1681526020019081526020015f2054905081811015610cc8578381836040517fe450d38c000000000000000000000000000000000000000000000000000000008152600401610cbf93929190611255565b60405180910390fd5b8181610cd49190611222565b60035f8673ffffffffffffffffffffffffffffffffffffffff1673ffffffffffffffffffffffffffffffffffffffff1681526020019081526020015f20819055508160035f8573ffffffffffffffffffffffffffffffffffffffff1673ffffffffffffffffffffffffffffffffffffffff1681526020019081526020015f205f828254610d61919061128a565b925050819055508273ffffffffffffffffffffffffffffffffffffffff168473ffffffffffffffffffffffffffffffffffffffff167fddf252ad1be2c89b69c2b068fc378daa952ba7f163c4a11628f55a4df523b3ef84604051610dc59190610f74565b60405180910390a350505050565b5f81519050919050565b5f82825260208201905092915050565b8281835e5f83830152505050565b5f601f19601f8301169050919050565b5f610e1582610dd3565b610e1f8185610ddd565b9350610e2f818560208601610ded565b610e3881610dfb565b840191505092915050565b5f6020820190508181035f830152610e5b8184610e0b565b905092915050565b5f5ffd5b5f73ffffffffffffffffffffffffffffffffffffffff82169050919050565b5f610e9082610e67565b9050919050565b610ea081610e86565b8114610eaa575f5ffd5b50565b5f81359050610ebb81610e97565b92915050565b5f819050919050565b610ed381610ec1565b8114610edd575f5ffd5b50565b5f81359050610eee81610eca565b92915050565b5f5f60408385031215610f0a57610f09610e63565b5b5f610f1785828601610ead565b9250506020610f2885828601610ee0565b9150509250929050565b5f8115159050919050565b610f4681610f32565b82525050565b5f602082019050610f5f5f830184610f3d565b92915050565b610f6e81610ec1565b82525050565b5f602082019050610f875f830184610f65565b92915050565b5f5f5f60608486031215610fa457610fa3610e63565b5b5f610fb186828701610ead565b9350506020610fc286828701610ead565b9250506040610fd386828701610ee0565b9150509250925092565b5f60ff82169050919050565b610ff281610fdd565b82525050565b5f60208201905061100b5f830184610fe9565b92915050565b5f6020828403121561102657611025610e63565b5b5f61103384828501610ead565b91505092915050565b61104581610e86565b82525050565b5f60208201905061105e5f83018461103c565b92915050565b5f5f6040838503121561107a57611079610e63565b5b5f61108785828601610ead565b925050602061109885828601610ead565b9150509250929050565b7f4e487b71000000000000000000000000000000000000000000000000000000005f52602260045260245ffd5b5f60028204905060018216806110e657607f821691505b6020821081036110f9576110f86110a2565b5b50919050565b7f53656e64657220626c61636b6c697374656400000000000000000000000000005f82015250565b5f611133601283610ddd565b915061113e826110ff565b602082019050919050565b5f6020820190508181035f83015261116081611127565b9050919050565b7f4368616c6c656e676530363a20696e73756666696369656e7420616c6c6f77615f8201527f6e63650000000000000000000000000000000000000000000000000000000000602082015250565b5f6111c1602383610ddd565b91506111cc82611167565b604082019050919050565b5f6020820190508181035f8301526111ee816111b5565b9050919050565b7f4e487b71000000000000000000000000000000000000000000000000000000005f52601160045260245ffd5b5f61122c82610ec1565b915061123783610ec1565b925082820390508181111561124f5761124e6111f5565b5b92915050565b5f6060820190506112685f83018661103c565b6112756020830185610f65565b6112826040830184610f65565b949350505050565b5f61129482610ec1565b915061129f83610ec1565b92508282019050808211156112b7576112b66111f5565b5b9291505056fea2646970667358221220c4fae92cd9bc84fe249660384f7593cf82e22d7fc9287390b0b774ac9a2fe92c64736f6c634300081c0033","linkReferences":{}},"methodIdentifiers":{"addToBlacklist(address)":"44337ea1","allowance(address,address)":"dd62ed3e","approve(address,uint256)":"095ea7b3","balanceOf(address)":"70a08231","blacklist(address)":"f9f92be4","contractOwner()":"ce606ee0","decimals()":"313ce567","name()":"06fdde03","removeFromBlacklist(address)":"537df3b6","symbol()":"95d89b41","totalSupply()":"18160ddd","transfer(address,uint256)":"a9059cbb","transferFrom(address,address,uint256)":"23b872dd"},"id":23}