{"abi":[{"type":"constructor","inputs":[],"stateMutability":"nonpayable"},{"type":"function","name":"addToBlacklist","inputs":[{"name":"account","type":"address","internalType":"address"}],"outputs":[],"stateMutability":"nonpayable"},{"type":"function","name":"allowance","inputs":[{"name":"owner","type":"address","internalType":"address"},{"name":"spender","type":"address","internalType":"address"}],"outputs":[{"name":"","type":"uint256","internalType":"uint256"}],"stateMutability":"view"},{"type":"function","name":"approve","inputs":[{"name":"spender","type":"address","internalType":"address"},{"name":"value","type":"uint256","internalType":"uint256"}],"outputs":[{"name":"","type":"bool","internalType":"bool"}],"stateMutability":"nonpayable"},{"type":"function","name":"balanceOf","inputs":[{"name":"account","type":"address","internalType":"address"}],"outputs":[{"name":"","type":"uint256","internalType":"uint256"}],"stateMutability":"view"},{"type":"function","name":"blacklist","inputs":[{"name":"","type":"address","internalType":"address"}],"outputs":[{"name":"","type":"bool","internalType":"bool"}],"stateMutability":"view"},{"type":"function","name":"contractOwner","inputs":[],"outputs":[{"name":"","type":"address","internalType":"address"}],"stateMutability":"view"},{"type":"function","name":"decimals","inputs":[],"outputs":[{"name":"","type":"uint8","internalType":"uint8"}],"stateMutability":"view"},{"type":"function","name":"name","inputs":[],"outputs":[{"name":"","type":"string","internalType":"string"}],"stateMutability":"view"},{"type":"function","name":"removeFromBlacklist","inputs":[{"name":"account","type":"address","internalType":"address"}],"outputs":[],"stateMutability":"nonpayable"},{"type":"function","name":"symbol","inputs":[],"outputs":[{"name":"","type":"string","internalType":"string"}],"stateMutability":"view"},{"type":"function","name":"totalSupply","inputs":[],"outputs":[{"name":"","type":"uint256","internalType":"uint256"}],"stateMutability":"view"},{"type":"function","name":"transfer","inputs":[{"name":"to","type":"address","internalType":"address"},{"name":"value","type":"uint256","internalType":"uint256"}],"outputs":[{"name":"","type":"bool","internalType":"bool"}],"stateMutability":"nonpayable"},{"type":"function","name":"transferFrom","inputs":[{"name":"from","type":"address","internalType":"address"},{"name":"to","type":"address","internalType":"address"},{"name":"value","type":"uint256","internalType":"uint256"}],"outputs":[{"name":"","type":"bool","internalType":"bool"}],"stateMutability":"nonpayable"},{"type":"event","name":"Approval","inputs":[{"name":"owner","type":"address","indexed":true,"internalType":"address"},{"name":"spender","type":"address","indexed":true,"internalType":"address"},{"name":"value","type":"uint256","indexed":false,"internalType":"uint256"}],"anonymous":false},{"type":"event","name":"Blacklisted","inputs":[{"name":"account","type":"address","indexed":true,"internalType":"address"}],"anonymous":false},{"type":"event","name":"Transfer","inputs":[{"name":"from","type":"address","indexed":true,"internalType":"address"},{"name":"to","type":"address","indexed":true,"internalType":"address"},{"name":"value","type":"uint256","indexed":false,"internalType":"uint256"}],"anonymous":false},{"type":"event","name":"Unblacklisted","inputs":[{"name":"account","type":"address","indexed":true,"internalType":"address"}],"anonymous":false},{"type":"error","name":"ERC20InsufficientAllowance","inputs":[{"name":"spender","type":"address","internalType":"address"},{"name":"allowance","type":"uint256","internalType":"uint256"},{"name":"needed","type":"uint256","internalType":"uint256"}]},{"type":"error","name":"ERC20InsufficientBalance","inputs":[{"name":"sender","type":"address","internalType":"address"},{"name":"balance","type":"uint256","internalType":"uint256"},{"name":"needed","type":"uint256","internalType":"uint256"}]},{"type":"error","name":"ERC20InvalidApprover","inputs":[{"name":"approver","type":"address","internalType":"address"}]},{"type":"error","name":"ERC20InvalidReceiver","inputs":[{"name":"receiver","type":"address","internalType":"address"}]},{"type":"error","name":"ERC20InvalidSender","inputs":[{"name":"sender","type":"address","internalType":"address"}]},{"type":"error","name":"ERC20InvalidSpender","inputs":[{"name":"spender","type":"address","internalType":"address"}]},{"type":"error","name":"Unauthorized","inputs":[]}],"bytecode":{"object":"0x608060405234801561000f575f5ffd5b506040518060400160405280600b81526020017f4275676779546f6b656e360000000000000000000000000000000000000000008152505f90816100539190610479565b506040518060400160405280600481526020017f4255473600000000000000000000000000000000000000000000000000000000815250600190816100989190610479565b503360025f6101000a81548173ffffffffffffffffffffffffffffffffffffffff021916908373ffffffffffffffffffffffffffffffffffffffff1602179055506100f33369d3c21bcecceda10000006100f860201b60201c565b610628565b5f73ffffffffffffffffffffffffffffffffffffffff168273ffffffffffffffffffffffffffffffffffffffff160361016857816040517fec442f0500000000000000000000000000000000000000000000000000000000815260040161015f9190610587565b60405180910390fd5b8060065f82825461017991906105cd565b925050819055508060035f8473ffffffffffffffffffffffffffffffffffffffff1673ffffffffffffffffffffffffffffffffffffffff1681526020019081526020015f205f8282546101cc91906105cd565b925050819055508173ffffffffffffffffffffffffffffffffffffffff165f73ffffffffffffffffffffffffffffffffffffffff167fddf252ad1be2c89b69c2b068fc378daa952ba7f163c4a11628f55a4df523b3ef83604051610230919061060f565b60405180910390a35050565b5f81519050919050565b7f4e487b71000000000000000000000000000000000000000000000000000000005f52604160045260245ffd5b7f4e487b71000000000000000000000000000000000000000000000000000000005f52602260045260245ffd5b5f60028204905060018216806102b757607f821691505b6020821081036102ca576102c9610273565b5b50919050565b5f819050815f5260205f209050919050565b5f6020601f8301049050919050565b5f82821b905092915050565b5f6008830261032c7fffffffffffffffffffffffffffffffffffffffffffffffffffffffffffffffff826102f1565b61033686836102f1565b95508019841693508086168417925050509392505050565b5f819050919050565b5f819050919050565b5f61037a6103756103708461034e565b610357565b61034e565b9050919050565b5f819050919050565b61039383610360565b6103a761039f82610381565b8484546102fd565b825550505050565b5f5f905090565b6103be6103af565b6103c981848461038a565b505050565b5b818110156103ec576103e15f826103b6565b6001810190506103cf565b5050565b601f82111561043157610402816102d0565b61040b846102e2565b8101602085101561041a578190505b61042e610426856102e2565b8301826103ce565b50505b505050565b5f82821c905092915050565b5f6104515f1984600802610436565b1980831691505092915050565b5f6104698383610442565b9150826002028217905092915050565b6104828261023c565b67ffffffffffffffff81111561049b5761049a610246565b5b6104a582546102a0565b6104b08282856103f0565b5f60209050601f8311600181146104e1575f84156104cf578287015190505b6104d9858261045e565b865550610540565b601f1984166104ef866102d0565b5f5b82811015610516578489015182556001820191506020850194506020810190506104f1565b86831015610533578489015161052f601f891682610442565b8355505b6001600288020188555050505b505050505050565b5f73ffffffffffffffffffffffffffffffffffffffff82169050919050565b5f61057182610548565b9050919050565b61058181610567565b82525050565b5f60208201905061059a5f830184610578565b92915050565b7f4e487b71000000000000000000000000000000000000000000000000000000005f52601160045260245ffd5b5f6105d78261034e565b91506105e28361034e565b92508282019050808211156105fa576105f96105a0565b5b92915050565b6106098161034e565b82525050565b5f6020820190506106225f830184610600565b92915050565b611655806106355f395ff3fe608060405234801561000f575f5ffd5b50600436106100cd575f3560e01c8063537df3b61161008a578063a9059cbb11610064578063a9059cbb14610211578063ce606ee014610241578063dd62ed3e1461025f578063f9f92be41461028f576100cd565b8063537df3b6146101a757806370a08231146101c357806395d89b41146101f3576100cd565b806306fdde03146100d1578063095ea7b3146100ef57806318160ddd1461011f57806323b872dd1461013d578063313ce5671461016d57806344337ea11461018b575b5f5ffd5b6100d96102bf565b6040516100e691906110fb565b60405180910390f35b610109600480360381019061010491906111ac565b61034a565b6040516101169190611204565b60405180910390f35b610127610474565b604051610134919061122c565b60405180910390f35b61015760048036038101906101529190611245565b61047d565b6040516101649190611204565b60405180910390f35b61017561063d565b60405161018291906112b0565b60405180910390f35b6101a560048036038101906101a091906112c9565b610642565b005b6101c160048036038101906101bc91906112c9565b610763565b005b6101dd60048036038101906101d891906112c9565b610883565b6040516101ea919061122c565b60405180910390f35b6101fb6108c9565b60405161020891906110fb565b60405180910390f35b61022b600480360381019061022691906111ac565b610955565b6040516102389190611204565b60405180910390f35b610249610a7f565b6040516102569190611303565b60405180910390f35b6102796004803603810190610274919061131c565b610aa4565b604051610286919061122c565b60405180910390f35b6102a960048036038101906102a491906112c9565b610b26565b6040516102b69190611204565b60405180910390f35b5f80546102cb90611387565b80601f01602080910402602001604051908101604052809291908181526020018280546102f790611387565b80156103425780601f1061031957610100808354040283529160200191610342565b820191905f5260205f20905b81548152906001019060200180831161032557829003601f168201915b505050505081565b5f60055f3373ffffffffffffffffffffffffffffffffffffffff1673ffffffffffffffffffffffffffffffffffffffff1681526020019081526020015f205f9054906101000a900460ff16156103d5576040517f08c379a00000000000000000000000000000000000000000000000000000000081526004016103cc90611401565b60405180910390fd5b60055f8473ffffffffffffffffffffffffffffffffffffffff1673ffffffffffffffffffffffffffffffffffffffff1681526020019081526020015f205f9054906101000a900460ff161561045f576040517f08c379a000000000000000000000000000000000000000000000000000000000815260040161045690611469565b60405180910390fd5b61046a338484610b43565b6001905092915050565b5f600654905090565b5f60055f3373ffffffffffffffffffffffffffffffffffffffff1673ffffffffffffffffffffffffffffffffffffffff1681526020019081526020015f205f9054906101000a900460ff1615610508576040517f08c379a00000000000000000000000000000000000000000000000000000000081526004016104ff90611401565b60405180910390fd5b60055f8573ffffffffffffffffffffffffffffffffffffffff1673ffffffffffffffffffffffffffffffffffffffff1681526020019081526020015f205f9054906101000a900460ff1615610592576040517f08c379a0000000000000000000000000000000000000000000000000000000008152600401610589906114d1565b60405180910390fd5b60055f8473ffffffffffffffffffffffffffffffffffffffff1673ffffffffffffffffffffffffffffffffffffffff1681526020019081526020015f205f9054906101000a900460ff161561061c576040517f08c379a000000000000000000000000000000000000000000000000000000000815260040161061390611539565b60405180910390fd5b610627843384610d0a565b610632848484610e16565b600190509392505050565b601281565b60025f9054906101000a900473ffffffffffffffffffffffffffffffffffffffff1673ffffffffffffffffffffffffffffffffffffffff163373ffffffffffffffffffffffffffffffffffffffff16146106c8576040517f82b4290000000000000000000000000000000000000000000000000000000000815260040160405180910390fd5b600160055f8373ffffffffffffffffffffffffffffffffffffffff1673ffffffffffffffffffffffffffffffffffffffff1681526020019081526020015f205f6101000a81548160ff0219169083151502179055508073ffffffffffffffffffffffffffffffffffffffff167fffa4e6181777692565cf28528fc88fd1516ea86b56da075235fa575af6a4b85560405160405180910390a250565b60025f9054906101000a900473ffffffffffffffffffffffffffffffffffffffff1673ffffffffffffffffffffffffffffffffffffffff163373ffffffffffffffffffffffffffffffffffffffff16146107e9576040517f82b4290000000000000000000000000000000000000000000000000000000000815260040160405180910390fd5b5f60055f8373ffffffffffffffffffffffffffffffffffffffff1673ffffffffffffffffffffffffffffffffffffffff1681526020019081526020015f205f6101000a81548160ff0219169083151502179055508073ffffffffffffffffffffffffffffffffffffffff167f7534c63860313c46c473e4e98328f37017e9674e2162faf1a3ad7a96236c3b7b60405160405180910390a250565b5f60035f8373ffffffffffffffffffffffffffffffffffffffff1673ffffffffffffffffffffffffffffffffffffffff1681526020019081526020015f20549050919050565b600180546108d690611387565b80601f016020809104026020016040519081016040528092919081815260200182805461090290611387565b801561094d5780601f106109245761010080835404028352916020019161094d565b820191905f5260205f20905b81548152906001019060200180831161093057829003601f168201915b505050505081565b5f60055f3373ffffffffffffffffffffffffffffffffffffffff1673ffffffffffffffffffffffffffffffffffffffff1681526020019081526020015f205f9054906101000a900460ff16156109e0576040517f08c379a00000000000000000000000000000000000000000000000000000000081526004016109d790611401565b60405180910390fd5b60055f8473ffffffffffffffffffffffffffffffffffffffff1673ffffffffffffffffffffffffffffffffffffffff1681526020019081526020015f205f9054906101000a900460ff1615610a6a576040517f08c379a0000000000000000000000000000000000000000000000000000000008152600401610a6190611539565b60405180910390fd5b610a75338484610e16565b6001905092915050565b60025f9054906101000a900473ffffffffffffffffffffffffffffffffffffffff1681565b5f60045f8473ffffffffffffffffffffffffffffffffffffffff1673ffffffffffffffffffffffffffffffffffffffff1681526020019081526020015f205f8373ffffffffffffffffffffffffffffffffffffffff1673ffffffffffffffffffffffffffffffffffffffff1681526020019081526020015f2054905092915050565b6005602052805f5260405f205f915054906101000a900460ff1681565b5f73ffffffffffffffffffffffffffffffffffffffff168373ffffffffffffffffffffffffffffffffffffffff1603610bb357826040517fe602df05000000000000000000000000000000000000000000000000000000008152600401610baa9190611303565b60405180910390fd5b5f73ffffffffffffffffffffffffffffffffffffffff168273ffffffffffffffffffffffffffffffffffffffff1603610c2357816040517f94280d62000000000000000000000000000000000000000000000000000000008152600401610c1a9190611303565b60405180910390fd5b8060045f8573ffffffffffffffffffffffffffffffffffffffff1673ffffffffffffffffffffffffffffffffffffffff1681526020019081526020015f205f8473ffffffffffffffffffffffffffffffffffffffff1673ffffffffffffffffffffffffffffffffffffffff1681526020019081526020015f20819055508173ffffffffffffffffffffffffffffffffffffffff168373ffffffffffffffffffffffffffffffffffffffff167f8c5be1e5ebec7d5bd14f71427d1e84f3dd0314c0f7b2291e5b200ac8c7c3b92583604051610cfd919061122c565b60405180910390a3505050565b5f610d158484610aa4565b90507fffffffffffffffffffffffffffffffffffffffffffffffffffffffffffffffff8114610e105781811015610d87578281836040517ffb8f41b2000000000000000000000000000000000000000000000000000000008152600401610d7e93929190611557565b60405180910390fd5b8181610d9391906115b9565b60045f8673ffffffffffffffffffffffffffffffffffffffff1673ffffffffffffffffffffffffffffffffffffffff1681526020019081526020015f205f8573ffffffffffffffffffffffffffffffffffffffff1673ffffffffffffffffffffffffffffffffffffffff1681526020019081526020015f20819055505b50505050565b5f73ffffffffffffffffffffffffffffffffffffffff168373ffffffffffffffffffffffffffffffffffffffff1603610e8657826040517f96c6fd1e000000000000000000000000000000000000000000000000000000008152600401610e7d9190611303565b60405180910390fd5b5f73ffffffffffffffffffffffffffffffffffffffff168273ffffffffffffffffffffffffffffffffffffffff1603610ef657816040517fec442f05000000000000000000000000000000000000000000000000000000008152600401610eed9190611303565b60405180910390fd5b5f60035f8573ffffffffffffffffffffffffffffffffffffffff1673ffffffffffffffffffffffffffffffffffffffff1681526020019081526020015f2054905081811015610f80578381836040517fe450d38c000000000000000000000000000000000000000000000000000000008152600401610f7793929190611557565b60405180910390fd5b8181610f8c91906115b9565b60035f8673ffffffffffffffffffffffffffffffffffffffff1673ffffffffffffffffffffffffffffffffffffffff1681526020019081526020015f20819055508160035f8573ffffffffffffffffffffffffffffffffffffffff1673ffffffffffffffffffffffffffffffffffffffff1681526020019081526020015f205f82825461101991906115ec565b925050819055508273ffffffffffffffffffffffffffffffffffffffff168473ffffffffffffffffffffffffffffffffffffffff167fddf252ad1be2c89b69c2b068fc378daa952ba7f163c4a11628f55a4df523b3ef8460405161107d919061122c565b60405180910390a350505050565b5f81519050919050565b5f82825260208201905092915050565b8281835e5f83830152505050565b5f601f19601f8301169050919050565b5f6110cd8261108b565b6110d78185611095565b93506110e78185602086016110a5565b6110f0816110b3565b840191505092915050565b5f6020820190508181035f83015261111381846110c3565b905092915050565b5f5ffd5b5f73ffffffffffffffffffffffffffffffffffffffff82169050919050565b5f6111488261111f565b9050919050565b6111588161113e565b8114611162575f5ffd5b50565b5f813590506111738161114f565b92915050565b5f819050919050565b61118b81611179565b8114611195575f5ffd5b50565b5f813590506111a681611182565b92915050565b5f5f604083850312156111c2576111c161111b565b5b5f6111cf85828601611165565b92505060206111e085828601611198565b9150509250929050565b5f8115159050919050565b6111fe816111ea565b82525050565b5f6020820190506112175f8301846111f5565b92915050565b61122681611179565b82525050565b5f60208201905061123f5f83018461121d565b92915050565b5f5f5f6060848603121561125c5761125b61111b565b5b5f61126986828701611165565b935050602061127a86828701611165565b925050604061128b86828701611198565b9150509250925092565b5f60ff82169050919050565b6112aa81611295565b82525050565b5f6020820190506112c35f8301846112a1565b92915050565b5f602082840312156112de576112dd61111b565b5b5f6112eb84828501611165565b91505092915050565b6112fd8161113e565b82525050565b5f6020820190506113165f8301846112f4565b92915050565b5f5f604083850312156113325761133161111b565b5b5f61133f85828601611165565b925050602061135085828601611165565b9150509250929050565b7f4e487b71000000000000000000000000000000000000000000000000000000005f52602260045260245ffd5b5f600282049050600182168061139e57607f821691505b6020821081036113b1576113b061135a565b5b50919050565b7f53656e64657220626c61636b6c697374656400000000000000000000000000005f82015250565b5f6113eb601283611095565b91506113f6826113b7565b602082019050919050565b5f6020820190508181035f830152611418816113df565b9050919050565b7f5370656e64657220626c61636b6c6973746564000000000000000000000000005f82015250565b5f611453601383611095565b915061145e8261141f565b602082019050919050565b5f6020820190508181035f83015261148081611447565b9050919050565b7f46726f6d206164647265737320626c61636b6c697374656400000000000000005f82015250565b5f6114bb601883611095565b91506114c682611487565b602082019050919050565b5f6020820190508181035f8301526114e8816114af565b9050919050565b7f526563656976657220626c61636b6c69737465640000000000000000000000005f82015250565b5f611523601483611095565b915061152e826114ef565b602082019050919050565b5f6020820190508181035f83015261155081611517565b9050919050565b5f60608201905061156a5f8301866112f4565b611577602083018561121d565b611584604083018461121d565b949350505050565b7f4e487b71000000000000000000000000000000000000000000000000000000005f52601160045260245ffd5b5f6115c382611179565b91506115ce83611179565b92508282039050818111156115e6576115e561158c565b5b92915050565b5f6115f682611179565b915061160183611179565b92508282019050808211156116195761161861158c565b5b9291505056fea26469706673582212205b913c5aa6b559684a7a8649ec7649d1afcc0a607f3c40e87e9ee3e2b3694c6364736f6c634300081c0033","linkReferences":{}},"methodIdentifiers":{"addToBlacklist(address)":"44337ea1","allowance(address,address)":"dd62ed3e","approve(address,uint256)":"095ea7b3","balanceOf(address)":"70a08231","blacklist(address)":"f9f92be4","contractOwner()":"ce606ee0","decimals()":"313ce567","name()":"06fdde03","removeFromBlacklist(address)":"537df3b6","symbol()":"95d89b41","totalSupply()":"18160ddd","transfer(address,uint256)":"a9059cbb","transferFrom(address,address,uint256)":"23b872dd"},"id":19}