{"abi":[{"type":"constructor","inputs":[],"stateMutability":"nonpayable"},{"type":"function","name":"allowance","inputs":[{"name":"tokenOwner","type":"address","internalType":"address"},{"name":"spender","type":"address","internalType":"address"}],"outputs":[{"name":"","type":"uint256","internalType":"uint256"}],"stateMutability":"view"},{"type":"function","name":"approve","inputs":[{"name":"spender","type":"address","internalType":"address"},{"name":"value","type":"uint256","internalType":"uint256"}],"outputs":[{"name":"","type":"bool","internalType":"bool"}],"stateMutability":"nonpayable"},{"type":"function","name":"balanceOf","inputs":[{"name":"account","type":"address","internalType":"address"}],"outputs":[{"name":"","type":"uint256","internalType":"uint256"}],"stateMutability":"view"},{"type":"function","name":"decimals","inputs":[],"outputs":[{"name":"","type":"uint8","internalType":"uint8"}],"stateMutability":"view"},{"type":"function","name":"name","inputs":[],"outputs":[{"name":"","type":"string","internalType":"string"}],"stateMutability":"view"},{"type":"function","name":"owner","inputs":[],"outputs":[{"name":"","type":"address","internalType":"address"}],"stateMutability":"view"},{"type":"function","name":"pause","inputs":[],"outputs":[],"stateMutability":"nonpayable"},{"type":"function","name":"paused","inputs":[],"outputs":[{"name":"","type":"bool","internalType":"bool"}],"stateMutability":"view"},{"type":"function","name":"symbol","inputs":[],"outputs":[{"name":"","type":"string","internalType":"string"}],"stateMutability":"view"},{"type":"function","name":"totalSupply","inputs":[],"outputs":[{"name":"","type":"uint256","internalType":"uint256"}],"stateMutability":"view"},{"type":"function","name":"transfer","inputs":[{"name":"to","type":"address","internalType":"address"},{"name":"value","type":"uint256","internalType":"uint256"}],"outputs":[{"name":"","type":"bool","internalType":"bool"}],"stateMutability":"nonpayable"},{"type":"function","name":"transferFrom","inputs":[{"name":"from","type":"address","internalType":"address"},{"name":"to","type":"address","internalType":"address"},{"name":"value","type":"uint256","internalType":"uint256"}],"outputs":[{"name":"","type":"bool","internalType":"bool"}],"stateMutability":"nonpayable"},{"type":"function","name":"unpause","inputs":[],"outputs":[],"stateMutability":"nonpayable"},{"type":"event","name":"Approval","inputs":[{"name":"owner","type":"address","indexed":true,"internalType":"address"},{"name":"spender","type":"address","indexed":true,"internalType":"address"},{"name":"value","type":"uint256","indexed":false,"internalType":"uint256"}],"anonymous":false},{"type":"event","name":"Paused","inputs":[{"name":"account","type":"address","indexed":false,"internalType":"address"}],"anonymous":false},{"type":"event","name":"Transfer","inputs":[{"name":"from","type":"address","indexed":true,"internalType":"address"},{"name":"to","type":"address","indexed":true,"internalType":"address"},{"name":"value","type":"uint256","indexed":false,"internalType":"uint256"}],"anonymous":false},{"type":"event","name":"Unpaused","inputs":[{"name":"account","type":"address","indexed":false,"internalType":"address"}],"anonymous":false}],"bytecode":{"object":"0x60a0604052601260ff1660809060ff1681525034801561001d575f5ffd5b506040518060400160405280600b81526020017f4275676779546f6b656e340000000000000000000000000000000000000000008152505f90816100619190610498565b506040518060400160405280600481526020017f4255473400000000000000000000000000000000000000000000000000000000815250600190816100a69190610498565b5033600360016101000a81548173ffffffffffffffffffffffffffffffffffffffff021916908373ffffffffffffffffffffffffffffffffffffffff16021790555061011433608051600a6100fb91906106cf565b620f42406101099190610719565b61011960201b60201c565b61082d565b5f73ffffffffffffffffffffffffffffffffffffffff168273ffffffffffffffffffffffffffffffffffffffff1603610187576040517f08c379a000000000000000000000000000000000000000000000000000000000815260040161017e906107b4565b60405180910390fd5b8060025f82825461019891906107d2565b925050819055508060045f8473ffffffffffffffffffffffffffffffffffffffff1673ffffffffffffffffffffffffffffffffffffffff1681526020019081526020015f205f8282546101eb91906107d2565b925050819055508173ffffffffffffffffffffffffffffffffffffffff165f73ffffffffffffffffffffffffffffffffffffffff167fddf252ad1be2c89b69c2b068fc378daa952ba7f163c4a11628f55a4df523b3ef8360405161024f9190610814565b60405180910390a35050565b5f81519050919050565b7f4e487b71000000000000000000000000000000000000000000000000000000005f52604160045260245ffd5b7f4e487b71000000000000000000000000000000000000000000000000000000005f52602260045260245ffd5b5f60028204905060018216806102d657607f821691505b6020821081036102e9576102e8610292565b5b50919050565b5f819050815f5260205f209050919050565b5f6020601f8301049050919050565b5f82821b905092915050565b5f6008830261034b7fffffffffffffffffffffffffffffffffffffffffffffffffffffffffffffffff82610310565b6103558683610310565b95508019841693508086168417925050509392505050565b5f819050919050565b5f819050919050565b5f61039961039461038f8461036d565b610376565b61036d565b9050919050565b5f819050919050565b6103b28361037f565b6103c66103be826103a0565b84845461031c565b825550505050565b5f5f905090565b6103dd6103ce565b6103e88184846103a9565b505050565b5b8181101561040b576104005f826103d5565b6001810190506103ee565b5050565b601f82111561045057610421816102ef565b61042a84610301565b81016020851015610439578190505b61044d61044585610301565b8301826103ed565b50505b505050565b5f82821c905092915050565b5f6104705f1984600802610455565b1980831691505092915050565b5f6104888383610461565b9150826002028217905092915050565b6104a18261025b565b67ffffffffffffffff8111156104ba576104b9610265565b5b6104c482546102bf565b6104cf82828561040f565b5f60209050601f831160018114610500575f84156104ee578287015190505b6104f8858261047d565b86555061055f565b601f19841661050e866102ef565b5f5b8281101561053557848901518255600182019150602085019450602081019050610510565b86831015610552578489015161054e601f891682610461565b8355505b6001600288020188555050505b505050505050565b7f4e487b71000000000000000000000000000000000000000000000000000000005f52601160045260245ffd5b5f8160011c9050919050565b5f5f8291508390505b60018511156105e9578086048111156105c5576105c4610567565b5b60018516156105d45780820291505b80810290506105e285610594565b94506105a9565b94509492505050565b5f8261060157600190506106bc565b8161060e575f90506106bc565b8160018114610624576002811461062e5761065d565b60019150506106bc565b60ff8411156106405761063f610567565b5b8360020a91508482111561065757610656610567565b5b506106bc565b5060208310610133831016604e8410600b84101617156106925782820a90508381111561068d5761068c610567565b5b6106bc565b61069f84848460016105a0565b925090508184048111156106b6576106b5610567565b5b81810290505b9392505050565b5f60ff82169050919050565b5f6106d98261036d565b91506106e4836106c3565b92506107117fffffffffffffffffffffffffffffffffffffffffffffffffffffffffffffffff84846105f2565b905092915050565b5f6107238261036d565b915061072e8361036d565b925082820261073c8161036d565b9150828204841483151761075357610752610567565b5b5092915050565b5f82825260208201905092915050565b7f4368616c6c656e6765343a206d696e7420746f207a65726f20616464726573735f82015250565b5f61079e60208361075a565b91506107a98261076a565b602082019050919050565b5f6020820190508181035f8301526107cb81610792565b9050919050565b5f6107dc8261036d565b91506107e78361036d565b92508282019050808211156107ff576107fe610567565b5b92915050565b61080e8161036d565b82525050565b5f6020820190506108275f830184610805565b92915050565b6080516117e46108455f395f6103a601526117e45ff3fe608060405234801561000f575f5ffd5b50600436106100cd575f3560e01c80635c975abb1161008a5780638da5cb5b116100645780638da5cb5b146101ed57806395d89b411461020b578063a9059cbb14610229578063dd62ed3e14610259576100cd565b80635c975abb1461019557806370a08231146101b35780638456cb59146101e3576100cd565b806306fdde03146100d1578063095ea7b3146100ef57806318160ddd1461011f57806323b872dd1461013d578063313ce5671461016d5780633f4ba83a1461018b575b5f5ffd5b6100d9610289565b6040516100e69190610e9b565b60405180910390f35b61010960048036038101906101049190610f4c565b610314565b6040516101169190610fa4565b60405180910390f35b61012761032a565b6040516101349190610fcc565b60405180910390f35b61015760048036038101906101529190610fe5565b610333565b6040516101649190610fa4565b60405180910390f35b6101756103a4565b6040516101829190611050565b60405180910390f35b6101936103c8565b005b61019d6104f8565b6040516101aa9190610fa4565b60405180910390f35b6101cd60048036038101906101c89190611069565b61050a565b6040516101da9190610fcc565b60405180910390f35b6101eb610550565b005b6101f5610682565b60405161020291906110a3565b60405180910390f35b6102136106a8565b6040516102209190610e9b565b60405180910390f35b610243600480360381019061023e9190610f4c565b610734565b6040516102509190610fa4565b60405180910390f35b610273600480360381019061026e91906110bc565b610799565b6040516102809190610fcc565b60405180910390f35b5f805461029590611127565b80601f01602080910402602001604051908101604052809291908181526020018280546102c190611127565b801561030c5780601f106102e35761010080835404028352916020019161030c565b820191905f5260205f20905b8154815290600101906020018083116102ef57829003601f168201915b505050505081565b5f61032033848461081b565b6001905092915050565b5f600254905090565b5f60035f9054906101000a900460ff1615610383576040517f08c379a000000000000000000000000000000000000000000000000000000000815260040161037a906111a1565b60405180910390fd5b61038e8433846109de565b610399848484610bc0565b600190509392505050565b7f000000000000000000000000000000000000000000000000000000000000000081565b600360019054906101000a900473ffffffffffffffffffffffffffffffffffffffff1673ffffffffffffffffffffffffffffffffffffffff163373ffffffffffffffffffffffffffffffffffffffff1614610458576040517f08c379a000000000000000000000000000000000000000000000000000000000815260040161044f90611209565b60405180910390fd5b60035f9054906101000a900460ff166104a6576040517f08c379a000000000000000000000000000000000000000000000000000000000815260040161049d90611271565b60405180910390fd5b5f60035f6101000a81548160ff0219169083151502179055507f5db9ee0a495bf2e6ff9c91a7834c1ba4fdd244a5e8aa4e537bd38aeae4b073aa336040516104ee91906110a3565b60405180910390a1565b60035f9054906101000a900460ff1681565b5f60045f8373ffffffffffffffffffffffffffffffffffffffff1673ffffffffffffffffffffffffffffffffffffffff1681526020019081526020015f20549050919050565b600360019054906101000a900473ffffffffffffffffffffffffffffffffffffffff1673ffffffffffffffffffffffffffffffffffffffff163373ffffffffffffffffffffffffffffffffffffffff16146105e0576040517f08c379a00000000000000000000000000000000000000000000000000000000081526004016105d790611209565b60405180910390fd5b60035f9054906101000a900460ff161561062f576040517f08c379a0000000000000000000000000000000000000000000000000000000008152600401610626906112d9565b60405180910390fd5b600160035f6101000a81548160ff0219169083151502179055507f62e78cea01bee320cd4e420270b5ea74000d11b0c9f74754ebdbfc544b05a2583360405161067891906110a3565b60405180910390a1565b600360019054906101000a900473ffffffffffffffffffffffffffffffffffffffff1681565b600180546106b590611127565b80601f01602080910402602001604051908101604052809291908181526020018280546106e190611127565b801561072c5780601f106107035761010080835404028352916020019161072c565b820191905f5260205f20905b81548152906001019060200180831161070f57829003601f168201915b505050505081565b5f60035f9054906101000a900460ff1615610784576040517f08c379a000000000000000000000000000000000000000000000000000000000815260040161077b906111a1565b60405180910390fd5b61078f338484610bc0565b6001905092915050565b5f60055f8473ffffffffffffffffffffffffffffffffffffffff1673ffffffffffffffffffffffffffffffffffffffff1681526020019081526020015f205f8373ffffffffffffffffffffffffffffffffffffffff1673ffffffffffffffffffffffffffffffffffffffff1681526020019081526020015f2054905092915050565b5f73ffffffffffffffffffffffffffffffffffffffff168373ffffffffffffffffffffffffffffffffffffffff1603610889576040517f08c379a000000000000000000000000000000000000000000000000000000000815260040161088090611367565b60405180910390fd5b5f73ffffffffffffffffffffffffffffffffffffffff168273ffffffffffffffffffffffffffffffffffffffff16036108f7576040517f08c379a00000000000000000000000000000000000000000000000000000000081526004016108ee906113f5565b60405180910390fd5b8060055f8573ffffffffffffffffffffffffffffffffffffffff1673ffffffffffffffffffffffffffffffffffffffff1681526020019081526020015f205f8473ffffffffffffffffffffffffffffffffffffffff1673ffffffffffffffffffffffffffffffffffffffff1681526020019081526020015f20819055508173ffffffffffffffffffffffffffffffffffffffff168373ffffffffffffffffffffffffffffffffffffffff167f8c5be1e5ebec7d5bd14f71427d1e84f3dd0314c0f7b2291e5b200ac8c7c3b925836040516109d19190610fcc565b60405180910390a3505050565b5f73ffffffffffffffffffffffffffffffffffffffff168373ffffffffffffffffffffffffffffffffffffffff1603610a4c576040517f08c379a0000000000000000000000000000000000000000000000000000000008152600401610a4390611483565b60405180910390fd5b5f73ffffffffffffffffffffffffffffffffffffffff168273ffffffffffffffffffffffffffffffffffffffff1603610aba576040517f08c379a0000000000000000000000000000000000000000000000000000000008152600401610ab1906114eb565b60405180910390fd5b5f610ac58484610799565b90507fffffffffffffffffffffffffffffffffffffffffffffffffffffffffffffffff8114610bba5781811015610b31576040517f08c379a0000000000000000000000000000000000000000000000000000000008152600401610b2890611579565b60405180910390fd5b8181610b3d91906115c4565b60055f8673ffffffffffffffffffffffffffffffffffffffff1673ffffffffffffffffffffffffffffffffffffffff1681526020019081526020015f205f8573ffffffffffffffffffffffffffffffffffffffff1673ffffffffffffffffffffffffffffffffffffffff1681526020019081526020015f20819055505b50505050565b5f73ffffffffffffffffffffffffffffffffffffffff168373ffffffffffffffffffffffffffffffffffffffff1603610c2e576040517f08c379a0000000000000000000000000000000000000000000000000000000008152600401610c2590611667565b60405180910390fd5b5f73ffffffffffffffffffffffffffffffffffffffff168273ffffffffffffffffffffffffffffffffffffffff1603610c9c576040517f08c379a0000000000000000000000000000000000000000000000000000000008152600401610c93906116f5565b60405180910390fd5b5f60045f8573ffffffffffffffffffffffffffffffffffffffff1673ffffffffffffffffffffffffffffffffffffffff1681526020019081526020015f2054905081811015610d20576040517f08c379a0000000000000000000000000000000000000000000000000000000008152600401610d179061175d565b60405180910390fd5b8181610d2c91906115c4565b60045f8673ffffffffffffffffffffffffffffffffffffffff1673ffffffffffffffffffffffffffffffffffffffff1681526020019081526020015f20819055508160045f8573ffffffffffffffffffffffffffffffffffffffff1673ffffffffffffffffffffffffffffffffffffffff1681526020019081526020015f205f828254610db9919061177b565b925050819055508273ffffffffffffffffffffffffffffffffffffffff168473ffffffffffffffffffffffffffffffffffffffff167fddf252ad1be2c89b69c2b068fc378daa952ba7f163c4a11628f55a4df523b3ef84604051610e1d9190610fcc565b60405180910390a350505050565b5f81519050919050565b5f82825260208201905092915050565b8281835e5f83830152505050565b5f601f19601f8301169050919050565b5f610e6d82610e2b565b610e778185610e35565b9350610e87818560208601610e45565b610e9081610e53565b840191505092915050565b5f6020820190508181035f830152610eb38184610e63565b905092915050565b5f5ffd5b5f73ffffffffffffffffffffffffffffffffffffffff82169050919050565b5f610ee882610ebf565b9050919050565b610ef881610ede565b8114610f02575f5ffd5b50565b5f81359050610f1381610eef565b92915050565b5f819050919050565b610f2b81610f19565b8114610f35575f5ffd5b50565b5f81359050610f4681610f22565b92915050565b5f5f60408385031215610f6257610f61610ebb565b5b5f610f6f85828601610f05565b9250506020610f8085828601610f38565b9150509250929050565b5f8115159050919050565b610f9e81610f8a565b82525050565b5f602082019050610fb75f830184610f95565b92915050565b610fc681610f19565b82525050565b5f602082019050610fdf5f830184610fbd565b92915050565b5f5f5f60608486031215610ffc57610ffb610ebb565b5b5f61100986828701610f05565b935050602061101a86828701610f05565b925050604061102b86828701610f38565b9150509250925092565b5f60ff82169050919050565b61104a81611035565b82525050565b5f6020820190506110635f830184611041565b92915050565b5f6020828403121561107e5761107d610ebb565b5b5f61108b84828501610f05565b91505092915050565b61109d81610ede565b82525050565b5f6020820190506110b65f830184611094565b92915050565b5f5f604083850312156110d2576110d1610ebb565b5b5f6110df85828601610f05565b92505060206110f085828601610f05565b9150509250929050565b7f4e487b71000000000000000000000000000000000000000000000000000000005f52602260045260245ffd5b5f600282049050600182168061113e57607f821691505b602082108103611151576111506110fa565b5b50919050565b7f4368616c6c656e6765343a207472616e736665727320706175736564000000005f82015250565b5f61118b601c83610e35565b915061119682611157565b602082019050919050565b5f6020820190508181035f8301526111b88161117f565b9050919050565b7f4368616c6c656e6765343a2063616c6c6572206973206e6f74206f776e6572005f82015250565b5f6111f3601f83610e35565b91506111fe826111bf565b602082019050919050565b5f6020820190508181035f830152611220816111e7565b9050919050565b7f4368616c6c656e6765343a206e6f7420706175736564000000000000000000005f82015250565b5f61125b601683610e35565b915061126682611227565b602082019050919050565b5f6020820190508181035f8301526112888161124f565b9050919050565b7f4368616c6c656e6765343a20616c7265616479207061757365640000000000005f82015250565b5f6112c3601a83610e35565b91506112ce8261128f565b602082019050919050565b5f6020820190508181035f8301526112f0816112b7565b9050919050565b7f4368616c6c656e6765343a20617070726f76652066726f6d207a65726f2061645f8201527f6472657373000000000000000000000000000000000000000000000000000000602082015250565b5f611351602583610e35565b915061135c826112f7565b604082019050919050565b5f6020820190508181035f83015261137e81611345565b9050919050565b7f4368616c6c656e6765343a20617070726f766520746f207a65726f20616464725f8201527f6573730000000000000000000000000000000000000000000000000000000000602082015250565b5f6113df602383610e35565b91506113ea82611385565b604082019050919050565b5f6020820190508181035f83015261140c816113d3565b9050919050565b7f4368616c6c656e6765343a20746f6b656e206f776e6572207a65726f206164645f8201527f7265737300000000000000000000000000000000000000000000000000000000602082015250565b5f61146d602483610e35565b915061147882611413565b604082019050919050565b5f6020820190508181035f83015261149a81611461565b9050919050565b7f4368616c6c656e6765343a207370656e646572207a65726f20616464726573735f82015250565b5f6114d5602083610e35565b91506114e0826114a1565b602082019050919050565b5f6020820190508181035f830152611502816114c9565b9050919050565b7f4368616c6c656e6765343a20696e73756666696369656e7420616c6c6f77616e5f8201527f6365000000000000000000000000000000000000000000000000000000000000602082015250565b5f611563602283610e35565b915061156e82611509565b604082019050919050565b5f6020820190508181035f83015261159081611557565b9050919050565b7f4e487b71000000000000000000000000000000000000000000000000000000005f52601160045260245ffd5b5f6115ce82610f19565b91506115d983610f19565b92508282039050818111156115f1576115f0611597565b5b92915050565b7f4368616c6c656e6765343a207472616e736665722066726f6d207a65726f20615f8201527f6464726573730000000000000000000000000000000000000000000000000000602082015250565b5f611651602683610e35565b915061165c826115f7565b604082019050919050565b5f6020820190508181035f83015261167e81611645565b9050919050565b7f4368616c6c656e6765343a207472616e7366657220746f207a65726f206164645f8201527f7265737300000000000000000000000000000000000000000000000000000000602082015250565b5f6116df602483610e35565b91506116ea82611685565b604082019050919050565b5f6020820190508181035f83015261170c816116d3565b9050919050565b7f4368616c6c656e6765343a20696e73756666696369656e742062616c616e63655f82015250565b5f611747602083610e35565b915061175282611713565b602082019050919050565b5f6020820190508181035f8301526117748161173b565b9050919050565b5f61178582610f19565b915061179083610f19565b92508282019050808211156117a8576117a7611597565b5b9291505056fea26469706673582212206bb3aed8df1dbfda166984efbdff030d336cea0bb44b209524d129451b4b588d64736f6c634300081c0033","linkReferences":{}},"methodIdentifiers":{"allowance(address,address)":"dd62ed3e","approve(address,uint256)":"095ea7b3","balanceOf(address)":"70a08231","decimals()":"313ce567","name()":"06fdde03","owner()":"8da5cb5b","pause()":"8456cb59","paused()":"5c975abb","symbol()":"95d89b41","totalSupply()":"18160ddd","transfer(address,uint256)":"a9059cbb","transferFrom(address,address,uint256)":"23b872dd","unpause()":"3f4ba83a"},"id":18}